{
  "_format": "hh-sol-artifact-1",
  "contractName": "Recipient",
  "sourceName": "contracts/Recipient.sol",
  "abi": [
    {
      "inputs": [
        {
          "internalType": "address",
          "name": "trustedForwarder",
          "type": "address"
        }
      ],
      "stateMutability": "nonpayable",
      "type": "constructor"
    },
    {
      "anonymous": false,
      "inputs": [
        {
          "indexed": false,
          "internalType": "address",
          "name": "previousHolder",
          "type": "address"
        },
        {
          "indexed": false,
          "internalType": "address",
          "name": "currentHolder",
          "type": "address"
        },
        {
          "indexed": false,
          "internalType": "string",
          "name": "color",
          "type": "string"
        }
      ],
      "name": "FlagCaptured",
      "type": "event"
    },
    {
      "inputs": [],
      "name": "color",
      "outputs": [
        {
          "internalType": "string",
          "name": "",
          "type": "string"
        }
      ],
      "stateMutability": "view",
      "type": "function"
    },
    {
      "inputs": [],
      "name": "currentHolder",
      "outputs": [
        {
          "internalType": "address",
          "name": "",
          "type": "address"
        }
      ],
      "stateMutability": "view",
      "type": "function"
    },
    {
      "inputs": [],
      "name": "getFlagOwner",
      "outputs": [
        {
          "internalType": "address",
          "name": "",
          "type": "address"
        },
        {
          "internalType": "string",
          "name": "",
          "type": "string"
        }
      ],
      "stateMutability": "view",
      "type": "function"
    },
    {
      "inputs": [
        {
          "internalType": "address",
          "name": "forwarder",
          "type": "address"
        }
      ],
      "name": "isTrustedForwarder",
      "outputs": [
        {
          "internalType": "bool",
          "name": "",
          "type": "bool"
        }
      ],
      "stateMutability": "view",
      "type": "function"
    },
    {
      "inputs": [
        {
          "internalType": "string",
          "name": "_color",
          "type": "string"
        }
      ],
      "name": "setFlagOwner",
      "outputs": [],
      "stateMutability": "nonpayable",
      "type": "function"
    }
  ],
  "bytecode": "0x60a060405260008060006101000a81548173ffffffffffffffffffffffffffffffffffffffff021916908373ffffffffffffffffffffffffffffffffffffffff1602179055506040518060400160405280600581526020017f7768697465000000000000000000000000000000000000000000000000000000815250600190805190602001906200009292919062000103565b50348015620000a057600080fd5b5060405162000c2a38038062000c2a8339818101604052810190620000c691906200021d565b808073ffffffffffffffffffffffffffffffffffffffff1660808173ffffffffffffffffffffffffffffffffffffffff16815250505050620002b4565b82805462000111906200027e565b90600052602060002090601f01602090048101928262000135576000855562000181565b82601f106200015057805160ff191683800117855562000181565b8280016001018555821562000181579182015b828111156200018057825182559160200191906001019062000163565b5b50905062000190919062000194565b5090565b5b80821115620001af57600081600090555060010162000195565b5090565b600080fd5b600073ffffffffffffffffffffffffffffffffffffffff82169050919050565b6000620001e582620001b8565b9050919050565b620001f781620001d8565b81146200020357600080fd5b50565b6000815190506200021781620001ec565b92915050565b600060208284031215620002365762000235620001b3565b5b6000620002468482850162000206565b91505092915050565b7f4e487b7100000000000000000000000000000000000000000000000000000000600052602260045260246000fd5b600060028204905060018216806200029757607f821691505b60208210811415620002ae57620002ad6200024f565b5b50919050565b60805161095a620002d060003960006102c9015261095a6000f3fe608060405234801561001057600080fd5b50600436106100565760003560e01c80624225b81461005b578063050a48981461007957806353b7513c14610095578063572b6c05146100b4578063cf08fed5146100e4575b600080fd5b610063610102565b60405161007091906104c9565b60405180910390f35b610093600480360381019061008e919061063e565b610126565b005b61009d61020a565b6040516100ab92919061070f565b60405180910390f35b6100ce60048036038101906100c9919061076b565b6102c5565b6040516100db91906107b3565b60405180910390f35b6100ec61031d565b6040516100f991906107ce565b60405180910390f35b60008054906101000a900473ffffffffffffffffffffffffffffffffffffffff1681565b60008060009054906101000a900473ffffffffffffffffffffffffffffffffffffffff1690506101546103ab565b6000806101000a81548173ffffffffffffffffffffffffffffffffffffffff021916908373ffffffffffffffffffffffffffffffffffffffff16021790555081600190805190602001906101a99291906103e5565b507fda9799865d8cb12656a50c1be4b2bba34cd02ed8edd3d037c9360f303ff7990c8160008054906101000a900473ffffffffffffffffffffffffffffffffffffffff1660016040516101fe939291906108e6565b60405180910390a15050565b6000606060008054906101000a900473ffffffffffffffffffffffffffffffffffffffff16600180805461023d9061081f565b80601f01602080910402602001604051908101604052809291908181526020018280546102699061081f565b80156102b65780601f1061028b576101008083540402835291602001916102b6565b820191906000526020600020905b81548152906001019060200180831161029957829003601f168201915b50505050509050915091509091565b60007f000000000000000000000000000000000000000000000000000000000000000073ffffffffffffffffffffffffffffffffffffffff168273ffffffffffffffffffffffffffffffffffffffff16149050919050565b6001805461032a9061081f565b80601f01602080910402602001604051908101604052809291908181526020018280546103569061081f565b80156103a35780601f10610378576101008083540402835291602001916103a3565b820191906000526020600020905b81548152906001019060200180831161038657829003601f168201915b505050505081565b60006103b6336102c5565b156103ca57601436033560601c90506103d9565b6103d26103dd565b90506103da565b5b90565b600033905090565b8280546103f19061081f565b90600052602060002090601f016020900481019282610413576000855561045a565b82601f1061042c57805160ff191683800117855561045a565b8280016001018555821561045a579182015b8281111561045957825182559160200191906001019061043e565b5b509050610467919061046b565b5090565b5b8082111561048457600081600090555060010161046c565b5090565b600073ffffffffffffffffffffffffffffffffffffffff82169050919050565b60006104b382610488565b9050919050565b6104c3816104a8565b82525050565b60006020820190506104de60008301846104ba565b92915050565b6000604051905090565b600080fd5b600080fd5b600080fd5b600080fd5b6000601f19601f8301169050919050565b7f4e487b7100000000000000000000000000000000000000000000000000000000600052604160045260246000fd5b61054b82610502565b810181811067ffffffffffffffff8211171561056a57610569610513565b5b80604052505050565b600061057d6104e4565b90506105898282610542565b919050565b600067ffffffffffffffff8211156105a9576105a8610513565b5b6105b282610502565b9050602081019050919050565b82818337600083830152505050565b60006105e16105dc8461058e565b610573565b9050828152602081018484840111156105fd576105fc6104fd565b5b6106088482856105bf565b509392505050565b600082601f830112610625576106246104f8565b5b81356106358482602086016105ce565b91505092915050565b600060208284031215610654576106536104ee565b5b600082013567ffffffffffffffff811115610672576106716104f3565b5b61067e84828501610610565b91505092915050565b600081519050919050565b600082825260208201905092915050565b60005b838110156106c15780820151818401526020810190506106a6565b838111156106d0576000848401525b50505050565b60006106e182610687565b6106eb8185610692565b93506106fb8185602086016106a3565b61070481610502565b840191505092915050565b600060408201905061072460008301856104ba565b818103602083015261073681846106d6565b90509392505050565b610748816104a8565b811461075357600080fd5b50565b6000813590506107658161073f565b92915050565b600060208284031215610781576107806104ee565b5b600061078f84828501610756565b91505092915050565b60008115159050919050565b6107ad81610798565b82525050565b60006020820190506107c860008301846107a4565b92915050565b600060208201905081810360008301526107e881846106d6565b905092915050565b7f4e487b7100000000000000000000000000000000000000000000000000000000600052602260045260246000fd5b6000600282049050600182168061083757607f821691505b6020821081141561084b5761084a6107f0565b5b50919050565b60008190508160005260206000209050919050565b600081546108738161081f565b61087d8186610692565b9450600182166000811461089857600181146108aa576108dd565b60ff19831686526020860193506108dd565b6108b385610851565b60005b838110156108d5578154818901526001820191506020810190506108b6565b808801955050505b50505092915050565b60006060820190506108fb60008301866104ba565b61090860208301856104ba565b818103604083015261091a8184610866565b905094935050505056fea264697066735822122078bb574fada1ebf82fee2738699d4cc1e6d6b3ae68f15646a192d44bf1a6dcec64736f6c63430008090033",
  "linkReferences": {},
  "deployedLinkReferences": {}
}